:10000000F6C0000023C1000021C100001FC1000094
:100010001DC100001BC1000019C1000017C1000074
:1000200015C1000013C1000011C100000FC1000084
:100030000DC1000013C4000009C1000007C1000089
:1000400005C1000003C1000001C10000FFC00000A5
:10005000FDC00000FBC00000F9C00000B5C30000F7
:10006000F5C0000083C4000058C40000EFC00000C9
:10007000EDC00000EBC00000E9C00000E7C00000D8
:10008000E5C00000E3C00000E1C00000DFC00000E8
:10009000DDC00000DBC00000D9C00000D7C00000F8
:1000A000D5C00000D3C00000D1C00000CFC0000008
:1000B000CDC00000CBC00000C9C00000C7C0000018
:1000C000C5C00000C3C00000C1C00000BFC0000028
:1000D000BDC00000BBC00000B9C00000B7C0000038
:1000E000B5C000000200000A0B02090C0D0E080743
:1000F00003040100000000000000000000000000F8
:1001000000000000000000000000000000000000EF
:1001100000121110000000000000000000000000AC
:100120000000000000000000000000000022002588
:100130000028002B002E00310034000201000005D1
:100140000108010B0100002100240027002A002DD6
:10015000003000330001010000040107010A01051D
:10016000050505070508080808020202020A0A0830
:100170000804040404010101010101010103030356
:100180000303030303040707070C0C0C0C0C0C0CF3
:100190000C0202020206060606060606060B0B0BFA
:1001A0000B0B0B0B0B010210202008081020401035
:1001B000204080020102010804020101020408102B
:1001C0002040808040201008040201800402018049
:1001D0004020100804020108040201010204081072
:1001E000204080010204081020408000E60711240E
:1001F0001FBECFEFD1E2DEBFCDBF00E00CBF23E0DA
:10020000A6E5B2E001C01D92A032B207E1F712E00C
:10021000A0E0B2E0EEE6F4E100E00BBF02C0079020
:100220000D92A635B107D9F710E0C7EFD0E000E096
:1002300005C021970109802FFE01F5D6C63FD107E1
:1002400080E00807B1F7C8D30C94350AD9CE90E006
:10025000FC01EB55FE4F2491815A9E4FFC01849185
:10026000882399F090E0880F991FFC01EB5BFE4F0B
:10027000A591B491FC01E55DFE4F859194918FB7F6
:10028000F894EC91E22BEC938FBF0895282F30E087
:10029000F901EB51FF4F9491F901EB55FE4F449159
:1002A000215A3E4FF9012491222309F434C09923A5
:1002B00009F191509231F0F4E92FF0E08827ED59DF
:1002C000FE4F8F4FB0C69401980175018C019001CB
:1002D0007A019B01A101A501AB01AF01B301B901F5
:1002E000BD017A01C101C701CB01809180008F77E8
:1002F00080938000E22FF0E0EE0FFF1FE55DFE4FE0
:10030000A591B4918FB7F894EC91611148C04095D4
:100310004E234C938FBF0895809180008F7DE8CF4E
:1003200080918000877FE4CF84B58F7784BDE2CF52
:1003300084B58F7DFBCF8091B0008F778093B00024
:10034000D9CF8091B0008F7DF9CF809190008F77C9
:1003500080939000CFCF809190008F7DF9CF8091D6
:100360009000877FF5CF8091A0008F778093A000C9
:10037000C1CF8091A0008F7DF9CF8091A000877FB1
:10038000F5CF809120018F7780932001B3CF8091AA
:1003900020018F7DF9CF80912001877FF5CF4E2BF3
:1003A000B8CF3FB7F8948091770290917802A091EE
:1003B0007902B0917A0226B5A89B05C02F3F19F0AB
:1003C0000196A11DB11D3FBFBA2FA92F982F8827D5
:1003D000BC01CD01620F711D811D911D42E0660FB0
:1003E000771F881F991F4A95D1F7089590910002B1
:1003F00089130DC0E4EEF0E0E4919FEF90930002CA
:10040000E230D9F030F4EE2379F0E13081F060E0B1
:100410003DCFE43049F110F1E530C9F79091730018
:100420009D7F90937300F3CF10926E00F0CF909168
:100430006F009D7F90936F00EACF909170009D7F39
:100440009093700091E09093B0009091B100987FEC
:1004500094609093B1001092B300D9CF9091710045
:100460009D7F90937100D3CF909172009D7F909368
:100470007200CDCFAF92BF92CF92DF92EF92FF92F8
:100480000F931F93CF93DF936C017B018B01040FBC
:10049000151FEB015E01AE18BF08C017D10759F058
:1004A0006991D601ED91FC910190F081E02DC6019A
:1004B0001995892B79F7C501DF91CF911F910F9184
:1004C000FF90EF90DF90CF90BF90AF900895FC0128
:1004D000538D448D252F30E0842F90E0821B930BA9
:1004E000541710F0CF96089501970895FC01918D4F
:1004F000828D981761F0A28DAE0FBF2FB11D5D9652
:100500008C91928D9F5F9F73928F90E008958FEFF3
:100510009FEF08952FB7F89480917B0290917C0211
:10052000A0917D02B0917E022FBF809387029093AD
:100530008802A0938902B0938A028FE792E0D6DF07
:1005400097FF26C02FB7F89480917B0290917C0290
:10055000A0917D02B0917E022FBF40918702509101
:1005600088026091890270918A02841B950BA60B08
:10057000B70B409183025091840260918502709183
:10058000860284179507A607B707B8F28FEF9FEF8B
:100590000895FC01918D828D981731F0828DE80FBE
:1005A000F11D858D90E008958FEF9FEF0895FC0178
:1005B000918D228D892F90E0805C9F4F821B910945
:1005C0008F73992708958FE792E0F1DF21E0892B5F
:1005D00009F420E0822F0895FC01A48DA80FB92F03
:1005E000B11DA35ABF4F2C91848D90E001968F735B
:1005F0009927848FA689B7892C93A089B1898C917A
:10060000837080648C93938D848D981306C00288C8
:10061000F389E02D80818F7D80830895EF92FF9292
:100620000F931F93CF93DF93EC0181E0888F9B8D15
:100630008C8D98131AC0E889F989808185FF15C0CF
:100640009FB7F894EE89FF896083E889F9898081F2
:100650008370806480839FBF81E090E0DF91CF91C1
:100660001F910F91FF90EF900895F62E0B8D10E0E3
:100670000F5F1F4F0F731127E02E8C8D8E110BC053
:100680000FB607FCFACFE889F989808185FFF5CF9D
:10069000CE01A2DFF2CFEB8DEC0FFD2FF11DE35A5F
:1006A000FF4FF0829FB7F8940B8FEA89FB89808116
:1006B0008062D0CFCF93DF93EC01888D8823B1F097
:1006C000AA89BB89E889F9898C9185FD03C080815D
:1006D00086FD0CC00FB607FCF7CF8C9185FFF2CFDB
:1006E000808185FFEDCFCE0177DFEACFDF91CF911B
:1006F000089580E090E0892B21F065DF81110E9450
:10070000000080E090E0892B49F080E090E0892BA8
:1007100029F00E94000081110E94000080E090E01A
:10072000892B49F080E090E0892B29F00E9400009D
:1007300081110E94000080E090E0892B49F080E068
:1007400090E0892B29F00E94000081110C94000098
:100750000895FC0124813581232B39F421E0FB012C
:100760008081882341F020E006C0808191816DD690
:1007700021E0892BC1F7822F08950F931F93CF9308
:10078000DF93EC0188819981009759F02A813B81A0
:100790002617370730F081E0DF91CF911F910F913D
:1007A00008958B016F5F7F4F6BD5009759F0998348
:1007B00088831B830A832C813D81232B61F7FC01F5
:1007C0001082E9CF80E0E8CF1F920F920FB60F9210
:1007D00011242F933F938F939F93AF93BF93809157
:1007E0007B0290917C02A0917D02B0917E023091BB
:1007F000760223E0230F2D3758F50196A11DB11D78
:100800002093760280937B0290937C02A0937D02DA
:10081000B0937E028091770290917802A091790244
:10082000B0917A020196A11DB11D80937702909339
:100830007802A0937902B0937A02BF91AF919F9111
:100840008F913F912F910F900FBE0F901F90189591
:1008500026E8230F0296A11DB11DD2CF1F920F9241
:100860000FB60F9211240BB60F922F933F934F9315
:100870005F936F937F938F939F93AF93BF93EF9308
:10088000FF9380916A0290916B02A0916C02B091EB
:100890006D02892B8A2B8B2BE1F190915902E0910B
:1008A0005A02F0915B0280818927808380916A02DD
:1008B00090916B02A0916C02B0916D02181619060E
:1008C0001A061B069CF480916A0290916B02A0911B
:1008D0006C02B0916D020197A109B10980936A027F
:1008E00090936B02A0936C02B0936D02FF91EF9115
:1008F000BF91AF919F918F917F916F915F914F9138
:100900003F912F910F900BBE0F900FBE0F901F9035
:100910001895809100026ADDE9CF1F920F920FB601
:100920000F9211240BB60F922F933F934F935F9327
:100930006F937F938F939F93AF93BF93EF93FF93A7
:100940008FE792E049DEFF91EF91BF91AF919F91C8
:100950008F917F916F915F914F913F912F910F9068
:100960000BBE0F900FBE0F901F9018951F920F9205
:100970000FB60F9211240BB60F922F938F939F9364
:10098000EF93FF93E0918F02F09190028081E091CC
:100990009502F091960282FD1DC09081809198028F
:1009A0008F5F8F7320919902821741F0E091980236
:1009B000F0E0E158FD4F958F80939802FF91EF9101
:1009C0009F918F912F910F900BBE0F900FBE0F90A4
:1009D0001F9018958081F2CFCF93DF9300D000D085
:1009E0001F921F92CDB7DEB7789484B5826084BD24
:1009F00084B5816084BD85B5826085BD85B5816023
:100A000085BD80916E00816080936E0010928100A0
:100A1000809181008260809381008091810081605B
:100A2000809381008091800081608093800080911C
:100A3000B10084608093B1008091B00081608093A8
:100A4000B00080919100826080939100809191002C
:100A500081608093910080919000816080939000EC
:100A60008091A10082608093A1008091A1008160AB
:100A70008093A1008091A00081608093A00080916C
:100A80002101826080932101809121018160809306
:100A900021018091200181608093200180917A0062
:100AA000846080937A0080917A00826080937A00DB
:100AB00080917A00816080937A0080917A008068CA
:100AC00080937A001092C100E0918F02F091900221
:100AD00082E08083E0918B02F0918C021082E091A1
:100AE0008D02F0918E028FEC808310929702E0913C
:100AF0009302F091940286E08083E0919102F0915C
:100B00009202808180618083E0919102F091920253
:100B1000808188608083E0919102F09192028081CF
:100B200080688083E0919102F091920280818F7DB4
:100B3000808385E28CDB86E18ADB87E188DB60E00D
:100B400086E1A4DB60E087E1A1DBCC24CA94DC2C45
:100B50007601EFE32E2EEFE13E2E8FE792E027DDC8
:100B6000181619060CF023C21A8219821C821B82E5
:100B70001E821D8270E060E0CE010196FEDD2981BB
:100B80003A8181112BC02115310511F0C901EFD235
:100B90001A8219821E821D821C821B82BBDC97FD79
:100BA00024C08A30910509F18F831886AD80BE80FC
:100BB0002FEFA21AB20AB501CE010196DEDD88231D
:100BC00069F329813A818D819E81BE01695F7F4FE2
:100BD000820F931F43D4BE82AD82E0CF1E821D825E
:100BE00060E572E0C9013AD4D9CF69E172E0CE0183
:100BF0000196AFDD882319F061E086E147DB69E209
:100C000072E0CE010196A5DD882319F060E086E14F
:100C10003DDB67E372E0CE0101969BDD882319F08E
:100C200061E087E133DB65E472E0CE01019691DD9E
:100C3000882319F060E087E129DB61E572E0CE01ED
:100C4000019687DD882309F4ADC1809100028532C9
:100C500021F5E4EEF0E0149117FD7FC185E2F7DAAB
:100C6000112309F4F5C0123009F006C18091B100DA
:100C7000887F83608093B10089EF8093B300C09236
:100C80006A02D0926B02E0926C02F0926D02809147
:100C9000700082608093700060C18F3F09F05DC179
:100CA00085E280930002E4EEF0E01491812F1F3F73
:100CB00009F453C1123009F469C050F4112371F1E1
:100CC000113009F444C087FD48C185E2C0DACBCFBA
:100CD000143009F49EC008F47CC01530A1F71092BE
:100CE00020011092210180912101886080932101CF
:100CF00080912101816080932101E4E8F1E08491F9
:100D0000E82FF0E0EE0FFF1FE55DFE4F8591949117
:100D1000EAECF1E0849180935602A0CF14BC15BC9C
:100D200084B5826084BD85B5816085BDE4E8F1E06D
:100D30008491E82FF0E0EE0FFF1FE55DFE4F8591F7
:100D40009491EAECF1E0849180935D0287CF109258
:100D500080001092810080918100886080938100E2
:100D600080918100816080938100E4E8F1E08491CA
:100D7000E82FF0E0EE0FFF1FE55DFE4F85919491A7
:100D8000EAECF1E0849180935C0268CF1092B000AD
:100D90001092B1008091B00082608093B000809189
:100DA000B10081608093B100E4E8F1E08491E82F24
:100DB000F0E0EE0FFF1FE55DFE4F8591949190935B
:100DC0005B0280935A02EAECF1E08491809359022D
:100DD00045CF109290001092910080919100886010
:100DE0008093910080919100816080939100E4E86C
:100DF000F1E08491E82FF0E0EE0FFF1FE55DFE4F7C
:100E000085919491EAECF1E084918093580213E08B
:100E100025CF1092A0001092A1008091A1008860BF
:100E20008093A1008091A10081608093A100E4E8FB
:100E3000F1E08491E82FF0E0EE0FFF1FE55DFE4F3B
:100E400085919491EAECF1E084918093570206CF6A
:100E500085B5887F836085BD8CE787BDC0927202AF
:100E6000D0927302E0927402F092750280916E004B
:100E7000826080936E0071C01130C1F48091810056
:100E8000887F816080938100309289002092880061
:100E9000C0926E02D0926F02E0927002F0927102E4
:100EA00080916F00826080936F0057C01330C1F44F
:100EB00080919100887F81608093910030929900A9
:100EC00020929800C0926602D0926702E092680277
:100ED000F0926902809171008260809371003DC040
:100EE0001430C1F48091A100887F81608093A100BB
:100EF0003092A9002092A800C0926202D0926302B0
:100F0000E0926402F09265028091720082608093A8
:100F1000720023C01530C1F480912101887F816067
:100F2000809321013092290120922801C0925E0213
:100F3000D0925F02E0926002F092610280917300B1
:100F400082608093730009C0123009F43DC08CF5B3
:100F50001123C1F1113009F497CF23DA2B013C01A1
:100F600088EE882E83E0982EA12CB12C1ADA641911
:100F7000750986099709683E734081059105B0F3AC
:100F8000F1E08F1A9108A108B10828EE420E23E083
:100F9000521E611C711C81149104A104B10431F72B
:100FA00085E224DA89819A81009709F0E0D0A1DBFB
:100FB000D4CD143009F49CCF0CF480CF153009F453
:100FC000B1CFCBCF8FE349CF8FE357CEEFE7F2E03E
:100FD0001382128288EE93E0A0E0B0E084839583D0
:100FE000A683B7838BE092E09183808385EC90E0C9
:100FF0009587848784EC90E09787868780EC90E0E3
:10100000918B808B81EC90E0938B828B82EC90E0D3
:10101000958B848B86EC90E0978B868B118E128E4D
:10102000138E148E0895EE0FFF1F881F8BBF07903D
:10103000F691E02D19940F931F93CF93DF93823095
:10104000910510F482E090E0E0911E03F0911F03FF
:1010500030E020E0B0E0A0E0309799F421153105B0
:1010600009F44AC0281B390B24303105D8F58A8190
:101070009B816115710589F1FB0193838283FE01D8
:1010800011C0408151810281138148175907E0F056
:101090004817590799F4109761F012960C9312971C
:1010A00013961C933296CF01DF91CF911F910F9130
:1010B000089500931E0310931F03F4CF21153105EB
:1010C00051F04217530738F0A901DB019A01BD0125
:1010D000DF01F801C1CFEF01F9CF90931F03809397
:1010E0001E03CDCFFE01E20FF31F81939193225097
:1010F000310939832883D7CF20911C0330911D03F8
:10110000232B41F4209103023091040230931D03FC
:1011100020931C0320910102309102022115310518
:1011200041F42DB73EB74091050250910602241BB1
:10113000350BE0911C03F0911D03E217F307A0F4B7
:101140002E1B3F0B2817390778F0AC014E5F5F4F1D
:101150002417350748F04E0F5F1F50931D0340932F
:101160001C03819391939FCFF0E0E0E09CCFCF935D
:10117000DF930097E9F0FC01329713821282A0916D
:101180001E03B0911F03ED0130E020E01097A1F4A1
:1011900020813181820F931F20911C0330911D0308
:1011A0002817390709F061C0F0931D03E0931C0371
:1011B000DF91CF910895EA01CE17DF07E8F54A8164
:1011C0005B819E0141155105B1F7E901FB83EA837B
:1011D00049915991C40FD51FEC17FD0761F4808127
:1011E00091810296840F951FE901998388838281FA
:1011F00093819B838A83F0E0E0E012968D919C912D
:1012000013970097B9F52D913C911197CD01029656
:10121000820F931F20911C0330911D03281739075B
:1012200039F6309751F510921F0310921E03B093B8
:101230001D03A0931C03BCCFD383C2834081518183
:10124000840F951FC817D90761F44E5F5F4F8881DF
:101250009981480F591F518340838A819B819383D1
:1012600082832115310509F0B0CFF0931F03E0937D
:101270001E039ECFFD01DC01C0CF13821282D7CFA7
:101280004F925F926F927F928F929F92AF92BF9296
:10129000CF92DF92EF92FF920F931F93CF93DF9342
:1012A0008C01009791F4CB01DF91CF911F910F91A9
:1012B000FF90EF90DF90CF90BF90AF909F908F9076
:1012C0007F906F905F904F90B6CEFC01E60FF71FB6
:1012D0009C0122503109E217F30708F4AAC0D90192
:1012E000CD91DC911197C617D70718F1C530D105FC
:1012F00070F0CE0104978617970748F0C61BD70BEE
:101300002297C193D1936D937C93CF0130DFC801B5
:10131000DF91CF911F910F91FF90EF90DF90CF90D1
:10132000BF90AF909F908F907F906F905F904F9005
:1013300008955B01AC1ABD0A4C018C0E9D1EA09154
:101340001E03B0911F03512C412CF12CE12C10975E
:1013500031F580911C0390911D038815990509F0C2
:101360005CC04616570608F058C080910102909163
:101370000202009741F48DB79EB74091050250914B
:101380000602841B950BE817F90708F052C0F0938A
:101390001D03E0931C03F90171836083B8CF8D9125
:1013A0009C91119712966C90129713967C901397BC
:1013B000A815B90559F56C0142E0C40ED11CCA1438
:1013C000DB0420F1AC014A195B09DA01129615978A
:1013D00080F06282738251834083D9016D937C9344
:1013E000E114F10471F0D7011396FC93EE93129778
:1013F0008ECF22968C0F9D1FF90191838083F3017C
:10140000EFCFF0931F03E0931E0381CF48165906D8
:1014100008F42C017D01D3019ACFCB010CDE7C01B5
:10142000009739F0AE01B80107D0C801A0DE8701EE
:101430006ECF10E000E06BCFFB01DC0102C0019039
:101440000D9241505040D8F70895FB01DC018D9179
:10145000019080190110D9F3990B0895FB01DC016B
:0E14600001900D920020E1F70895F894FFCF5F
:10146E00FF000020038000000000000E033A026718
:10147E00025A03D7027602C90273746172745F6CEA
:10148E0065645F677265656E00656E645F6C65644A
:10149E005F677265656E0073746172745F6C65640C
:1014AE005F72656400656E645F6C65645F7265642F
:0614BE000062757A7A005D
:00000001FF
